:040000002AEF3EF0B5
:107B9E003F065B4F666D7D077F6F010001000100A0
:107BAE000100010001008A841A0E176EF80EE82EED
:107BBE00FED7172EFCD700D08A941A0E176EF80E29
:107BCE00E82EFED7172EFCD700D012008A861A0E8A
:107BDE00176EF80EE82EFED7172EFCD700D08A9619
:107BEE001A0E176EF80EE82EFED7172EFCD700D001
:107BFE001200720ED36E000E966E000E956E000E73
:107C0E00936E000E946E92809282928496909692CB
:107C1E009694949094920F0EC16E1200010E182439
:107C2E00D96E000E1920DA6EDF50836EDAEC3DF05D
:107C3E00010E1A24D96E000E1B20DA6EDF50836EF1
:107C4E00EDEC3DF012009E0EF66E7B0EF76E000E02
:107C5E00F86E00EE01F010EE16F00900F5CFEEFF13
:107C6E00E550E150FAE1256A246A236A226A000E81
:107C7E00F86E000103EF3FF019501A10D8B44AEF16
:107C8E003EF04CEF3EF070EF3EF0010E1B6E54EFE7
:107C9E003EF0D89019361A361B2A1AAE59EF3EF01E
:107CAE005BEF3EF050EF3EF01950175C1A5018582B
:107CBE00D8A064EF3EF066EF3EF06AEF3EF019504A
:107CCE00175E1A50185AD8901A3219321B2E5BEFC3
:107CDE003EF017C017F018C018F01200000E1C6E00
:107CEE00000E1B6E19501A10D8B480EF3EF082EFC2
:107CFE003EF0AAEF3EF0010E1D6E8AEF3EF0D890D8
:107D0E0019361A361D2A1AAE8FEF3EF091EF3EF05D
:107D1E0086EF3EF0D8901B361C361950175C1A5061
:107D2E001858D8A09DEF3EF09FEF3EF0A4EF3EF026
:107D3E001950175E1A50185A1B80D8901A321932E1
:107D4E001D2E91EF3EF01BC017F01CC018F0120054
:107D5E00185007E10B0E175CD8B0B8EF3EF0BAEF33
:107D6E003EF0BFEF3EF08D928D948D8002EF3FF08E
:107D7E00185009E10B0E175CD8A0C8EF3EF0CAEF01
:107D8E003EF0DAEF3EF0185007E1100E175CD8B057
:107D9E00D3EF3EF0D5EF3EF0DAEF3EF08D908D94BE
:107DAE008D8202EF3FF0185009E1100E175CD8A03B
:107DBE00E3EF3EF0E5EF3EF0F5EF3EF0185007E151
:107DCE00150E175CD8B0EEEF3EF0F0EF3EF0F5EF8B
:107DDE003EF08D908D928D8402EF3FF0185009E1A8
:107DEE00150E175CD8A0FEEF3EF000EF3FF002EF4D
:107DFE003FF002EF3FF0120000EC3EF022C017F011
:107E0E0023C018F0000E1A6E0A0E196E75EC3EF0B5
:107E1E0017C020F018C021F022C017F023C018F0B0
:107E2E00000E1A6E0A0E196E43EC3EF017C01EF0CD
:107E3E0018C01FF022C017F023C018F0AFEC3EF0B0
:107E4E0020C018F021C019F01EC01AF01FC01BF080
:107E5E0015EC3EF080B436EF3FF038EF3FF04CEFCC
:107E6E003FF080A23DEF3FF03FEF3FF04CEF3FF091
:107E7E0013041410D8A446EF3FF048EF3FF04CEF38
:107E8E003FF0000E166E000E156E80A651EF3FF0FD
:107E9E0053EF3FF05FEF3FF015501610D8A45AEF96
:107EAE003FF05CEF3FF05FEF3FF08B8077EF3FF0FE
:107EBE0080B664EF3FF066EF3FF077EF3FF08B90C8
:107ECE0080A06CEF3FF06EEF3FF06FEF3FF08B82D4
:107EDE0080B074EF3FF076EF3FF077EF3FF08B928C
:107EEE0080A47CEF3FF07EEF3FF090EF3FF080B24A
:107EFE0083EF3FF085EF3FF090EF3FF015501610F7
:107F0E00D8A48CEF3FF08EEF3FF090EF3FF0010ED4
:107F1E00256E80A295EF3FF097EF3FF0A7EF3FF071
:107F2E002504D8A49DEF3FF09FEF3FF0A7EF3FF061
:107F3E00000E166E010E156E224A232A000E256EB5
:107F4E0080A4ACEF3FF0AEEF3FF0C2EF3FF080B257
:107F5E00B3EF3FF0B5EF3FF0C2EF3FF01504161050
:107F6E00D8A4BCEF3FF0BEEF3FF0C2EF3FF0000EE3
:107F7E00146E000E136E80B4C7EF3FF0C9EF3FF0E2
:107F8E00DBEF3FF080A2CEEF3FF0D0EF3FF0DBEF24
:107F9E003FF013501410D8A4D7EF3FF0D9EF3FF0B5
:107FAE00DBEF3FF0010E246E80A4E0EF3FF0E2EF36
:107FBE003FF005EF3FF02404D8A4E8EF3FF0EAEFDE
:107FCE003FF005EF3FF013501410D8A4F1EF3FF03F
:107FDE00F3EF3FF005EF3FF0000E146E010E136E3F
:107FEE002206D8A02306000E246E05EF3FF000EF08
:027FFE0000F091
:020000040020DA
:08000000FFFFFFFFFFFFFFFF00
:020000040030CA
:0E00000000091F1EFF0181FF0FC00FE00F401F
:00000001FF
